:400000000010002011000000BB030000BB03000008B50C4A0C4B1A600C4B1A68102313400B4A00D113601368802B09D10023136000F09CF8002803D000F098F800F0BCF9ED
:4000400000F0CAFE6588EDAC380003405400034080000020000000000000000000000000000000000000000000000000000000000000000000000000000000000000000090
:400080000000000000000000000000000000000000000000000000000000000000000000000000000000000000000000000000000000000000000000000000000000000040
:4000C0000000000000000000000000000000000000000000000000000000000000000000000000000000000000000000000000000000000000000000000000000000000000
:40010000BB020010626E00001F00000010B5064C2378002B07D1054B002B02D0044800E000BF0123237010BD0001002000000000C40E000008B5084B002B03D007480849F1
:4001400000E000BF07480368002B00D108BD064B002BFBD09847F9E700000000C40E0000040100209000002000000000074B1A78074B1878074B00021B781B041843064B40
:4001800010431B781B0618437047C046C17F0000C27F0000C37F0000C47F00001C48F0B50478E31E012B31D8802285785200521B082A00D908228223164E9B00D1B2F2585B
:4001C000FA3BFF3B13400822D31ADBB20F1C321C994200D91F1C0026FBB2F1B2994207D20D4949198F5D9021890057500136F4E75B198370042C09D004230370F82301202A
:400200001B010649D050535803435350F0BDC046000200200000054000030020880F0000064B0022191C10207E310A7004499A710A688243D3B203430B607047000300202B
:4002400000010440074B084AD98A0848914208D1027A520705D458680002000CC0018130FF307047C07F00005943000000040020FF281AD0012282400C4BD968114214D09E
:40028000800018180269002A0FD000225033026102631A1C1B78002B07D0013BDBB21370002B02D12022024B1A6070470004002080E100E0044A05495232C86B1388C318AA
:4002C0009BB20B647047C04600040020000003400122104B70B55A64FFF7ECFF00240E49A200081C10301358E5B2002B0EDD013B1350002B0AD130315658013B1350281CAC
:40030000FFF7B6FF002E01D0281CB0470134082CE5D170BD000003400004002070B5031E022B04D00920012B31D1194900E019498A684B68100A0A7BCD8A174C1B021206B0
:4003400002431B0C0820A54221D10C68250A0C7924062C431BD0002A19D0DB011C1C0F4D8034AC4213D8A618AE4210D88032D21800230978944204D0207801341B18DBB247
:40038000F8E75B42DBB20220994200D0063070BDC07F0000407F000059430000FF7F0000034A044913689BB20B4313607047C0460CED00E00400FA050047FEE7F7B5C22274
:4003C000294B920099580F2211400C1C1A1C082900D908240023E4B2D9B2A14206D2D02168468900515819540133F5E7002C37D01E4D2A78AB78032A03D0052A32D10021ED
:4004000013E06B4680221B78013CE4B219195200914227DC164AAB70111C54310B700021563211708C421BD00131802218195200904217DC0E48021C543212789A4211D8C6
:40044000071C56373E7858308019221C694400F0F1FC05232B70AB78A619E4183E70AC70012000E00020FEBD00000540000200200004002038B5FF280ED001248440074D2C
:40048000EB68234208D0FFF7F3FE00F0E7FCEB68A343EB6000F0E6FC38BDC04600040020F0B5C94BC94CADB0E358012500930223009AFF331A4202D000231D1C0093009BB5
:4004C000DB0600D457E1C24B1A780293042A02D1FFF764FE30E1FFF771FF051E00D12BE1029B01251B78032B00D125E10025052B00D021E1B7490B1C0A1C5433187856329D
:4005000045B20B1C002D06DAB34B12781818583100F090FCD1E106381278062800D9C9E100F07EFC0700C8010F00C80123004000480058331B78DB0700D4BEE1FFF770FE14
:40054000BBE1012A00D8B5E158331A78522A00D0B0E15D78012D02D1FFF722FFAAE1002D00D0A7E1FFF75CFE1AE058331B78502B00D09FE1994D2E1C58363378002B0CD0AC
:40058000974B1F78381CFFF773FE381CFFF772FF2A1C002359321370337001235A352B70002385E158331878FFF7B8FE002800D183E1B2E0032A00D87CE158331A78462AB6
:4005C00000D077E15978844A012900D08CE0D9789B7809020B430193203BDF2B00D962E17E490B1C5A331B780391002B00D15DE10B1C5B331E780023002E00D056E18032CB
:40060000111C0CA880220496059600F013FC754B754D0A937F230B930AAB2B60734A744B171C13602B681B0F0A2B02D00F232E681E400496049E002E4FD100F00FFC6D4A1C
:4006400006AB0692039A5C3207922B606A4B3B602B681B0F0A2B03D0634B1E680F231E400596059B002B0CD164492960644939602968090F0A2903D05B4B19680F230B40F7
:4006800004930499002913D15E4B0A93019B0A9E1B0433430A930AAB2B605B4B3B602B681B0F0A2B03D0504B19680F2319400491059B002B0FD1554E08A908960992544AE5
:4006C00029603A602A68120F0A2A03D0464B1A680F231340059300F0C5FB049B002B00D1E6E00023072019E0002900D0E2E0D9789B7809020B430920FF2B0ED83749013037
:400700005A310978002908D08032101CD901802200F090FB8023032000E000232E4A0125111C7E310870111C7F310B70EF239571384A11680B4013600223029A802113700E
:4007400081229200A35849020B43A350A158324B0B40A35001223149635893436350F82310211B01E2502E4AA3588B43A350F42330221B01E250009B5B0656D5144E33786F
:40078000022B02D0032B06D04CE00323626E3370D2060CD509E0636EDB0643D5FFF70EFE051E3FD03378052B3CD0FFF7F7FC012D39D1F423302210211B01E250184AA35884
:4007C0000B43A350E56630E04C0F0000000005400002002000040020000300200005002094000020B6D70000080010400400104004000080B6E9000016000080B6E80000EB
:4008000015000080B6D8000005000080B6EA00001700008000010440FFFFFEFF880F0000480F000000250223E366F423009A1B01E250012D13D1234B234AD6582E4201D0BD
:40084000FFF7ACFCF8231B01E650204BE658F30702D5FFF7B3FD051CFC231B01E650002D2DD102220121236810205B005B082360174B1A70174A9D70E566A3588B43A350ED
:400880000123083A5B421449A350625882436250F4221201A3508032A350802223681206134323600BE00023092037E70A2035E7022033E70023052030E701253CE72DB079
:4008C000F0BDC0468C0F000000000540CC0F000000020020880F0000480F0000012208B5034B59331A70034B1878FFF7C3FD08BD0005002094000020F7B501222F4C23682F
:400900009343236000239A002D49032B01D82D4989582D4801338150202BF4D172B6FF2700250322294B2A4E1F602A4B1D602A4B1A602A4B21321A60294B143A1A60294A6E
:40094000294B1A601223336000F088FA0722274901900B68264893430B6026490B680078BB4303437F200B6023490B6893430B60224A23490B6812788343024013430B609D
:400980004D3800F061FA019800F06CFA1D4B1E4A1D601E4B1A6004221D4B1A601D4B1D601D4B35601D601D4B1A68AA4200D11A600122236813432360F7BDC046000010402F
:4009C000BB03000000000000000000200000024030001040000102400000044008000440000104404040000008010440080F0340E5F1FF0F0C0F0340100F0340CCF1FF0FA9
:400A0000180F03400002014000FF00800000014028000340000101408800002080000020F7B52022C54BC64D1A60C64B1F3AAB63EB6C002113438022EB64EB6A12061343CF
:400A40008022EB62C04B92009950C04A1A603E22BF4BD960BF4B186802401A60BE48BF4A9163506191608021C9021160012149421163E86B80B2E96B89B28842FBD0012423
:400A8000AF49C86B196880B221431960802149049960116BC907FCD5E96B8AB2904202D9802149020A43AE4C121A211C52310A803E2219680A401A60FFF7FCFBA94AAA4B17
:400AC0001A60AA4A13680092A94A9BB2934205D10023009A1360237A01222BE0009BA54A1B689BB2934209D100230121009A1360A14A237A5B3211700B431CE0009B9F4AD6
:400B00001B689BB2934205D10023009A1360237A02220FE00120FFF701FC022808D10122974B1A70974B984A9B8A934209D106E00422237A1343237249E0202B06D82023F3
:400B400007E0924A9342F8D1002302E0632B00D964238F4A53808E4B5B88002B00D1E7E000F07CF90021E7680122131C8B40CEB21F4202D13B43E36003E001310829F3D185
:400B8000FF2600F06FF9824B1E705B88FF2E1AD00122111CB140E068084214D0B600A6199B1833617B4B3363231C50331E78002E05D16A64FFF77EFB2022774B1A60231C3E
:400BC000013650331E7001226B4B58331A700022724D73492A602B6F724F0B432B67724B724E2B66EA66802381225B029200AB500132FF32AB503B686D4A3C2013408022C5
:400C000013433B6033687C3A9343DBB21343336000F01AF9664A674B1B680192C632FF32134201D1402315E03B68019A3C201340C02213433B603368BC3A9343DBB23360BC
:400C400000F002F904225B4B1B68134201D0422300E008234E4A422113713B68019AFF311340FE223B604A4B12041B7908275B001343C4229200AB5080222B681206134374
:400C80002B604D4BE9504D4B4139FF39E9504C4B01311970002199708121042389006B500131FF316B5004396B5813436B500139FF396B5813436B50424A434BC1391A60CA
:400CC000D123424AFF391B02D1500023404D3A1C281C2B703F4BC0311B6810306B8000F0A9F8FFF7AFFA011C281C3A1C183000F0A1F8237A80221F431F23AB802B1C7E3332
:400D00001A702B1C00227F331A7001236F70AB713268EE331340336062B6174B59331B78012BFAD1009A7F331360FFF739FBF4E78023009A1360FFF733FB48E780E100E02C
:400D4000000003406588EDAC0000014000FF0080FC00014000000740DF2E00000001074000040020D102000054000020800000204C4200004F520000000500204C54000012
:400D800084000020C07F0000FFFF00005943000094000020DD08000000E100E000000540000001010801044088280040000104403FFEFFFF04010440480F0000C80F0000E1
:400DC00000020020A104000058000020001000E00003002044F1FF0F70B50F490F4B01394A1C15D000221E685C689D68A018AA4203D0B058A0500432F8E7021CDC68151A7C
:400E0000A54202D0002520C2F9E710330139E7E700F02EF8FFF704FE01000000EC0E000003B47146490840004900095A49008E4403BC7047002310B5934203D0CC5CC454B2
:400E40000133F9E710BD00000230800804D0C0460138FDD1C046C046C0467047EFF3108072B6704780F310887047C046C046C0460E4B70B500251E1C0D4CE41AA410A54239
:400E800004D0AB00F35898470135F8E700F01CF8084B00251E1C084CE41AA410A54204D0AB00F35898470135F8E770BDD40E0000D40E0000D40E0000DC0E00000012000044
:400EC0001900000000000000F8B5C046F8BC08BC9E46704735010000F9080000F8B5C046F8BC08BC9E4670470D010000000F000090000020100000006005000000000000D4
:400F000000000000FF00200008000000000000000000000000000000000000000000000000000000000000000000000000000000000000000000000000000000000000008A
:400F40000000000000000000000000000000000000000000000000000000000000000000000000000000000000000000000000000000000000000000000000000000000071
:400F80000000000000000000000000000000000000000000000000000000000000000000000000000000000000000000000000000000000000000000000000000000000031
:400FC00000000000000000000000000000000000000000000000000000000000000000000000000000000000000000000000000000000000000000000000000000000000F1
:401000005943040000010002090000000000000000000000B404010020011400340100003401000000000000000000000000000000000000000000000000000000000000AC
:4010400000000000000000000000000000000000000000000201040000000000000115002C910126000000000000000000000000000000000000000000000000C8900136E0
:40108000C8D00204C8A00404C8400604000000000000000000000000000F0701000000000000000000000000000000000000000000000000000000000000000000000000F9
:4010C00000000000000000000000000000000000FFFFFFFFFFFFFFFF3C000000000000000000000000000000000A01000000000000000000000000000000000000000000B1
:40110000000000000000000000000000000000000000000000000000000000000000000014000000418000FFB404009000000000000087F600000000000000000000000016
:40114000000000000000000000000000000000000000000000000000000000000000000000000000000000000000000000000000000000000000000000000000000000006F
:40118000000000000000000000000000000000000000000000000000000000000000000000000000000000000000000000000000000000000000000000000000000000002F
:4011C00000000000000000000000000000000000000000000000000000000000000000000000000000000000000000000000000000000000000000000000000000000000EF
:401200000010002011120000095000000950000008B5044B83F30888034A044B1A6004F08FFAC046001000206588EDAC3800034000000000000000000000000000000000CD
:40124000000000000000000000000000000000000000000000000000000000000000000000000000000000000000000000000000000000000000000000000000000000006E
:40128000000000000000000000000000000000000000000000000000000000000000000000000000000000000000000000000000000000000000000000000000000000002E
:4012C00000000000000000000000000000000000000000000000000000000000000000000000000000000000000000000000000000000000000000000000000000000000EE
:40130000CA020520626E000010B5064C2378002B07D1054B002B02D0044800E000BF0123237010BD0001002000000000FC59000008B5084B002B03D00748084900E000BFB8
:4013400007480368002B00D108BD064B002BFBD09847F9E700000000FC5900000401002090000020000000008023F0B55B011A88E04991B08A420ED19020197A0023DE4AD9
:401380004001147801321B19DBB28242F9D15B42DBB299420BD072B6D84AD94913680B431360D84AD84913689BB20B431360D74BD74A181C3C301062181CD64E191C5C301C
:4013C00093625062336001200023D34CD34F28313872D16271602360226FD1490A432267D04A2266812292009446802261465202E36662500131FF316250C422CA4992003B
:40140000A1508021226849000A432260802242212568120615432560C44DFF3161516146C34D6051C025001878720230BB7260500131FF316050AD006059BE49104360511D
:401440008020800025582A432250BB48BB4ABC4D1060D1224020120288508021FB72B94B49001B7808222B70B74BB8481B686B8004F078FAB64B9F48DA8A01963E1C0694D0
:40148000AC4F0095311C824205D159680902090CC9018131FF310822AE4804F063FAAE4A009B12780533DA77AC4A009B12780633DA77AB4BAB4D1B789A00AB4B1B78DB00ED
:4014C00013432A781343A94A127852011343009AD362131CA64A4C3312781A700023FF211A01B218013311750F2BF8D1A14900200B1C2022012480267C3318709E4B360678
:401500001A609E4B9E4A9A63DA6C2243DA64DA6A3243DA625C649B4A9B4C14609B4C9C4AB85038519B489C4C3C50D86B80B2DC6BA4B2A042FBD005249048C06BBC5080B2A7
:401540008024BE5864022642FAD0DB6B9BB2984200D923430024914E181A7E310880211CBC50301C1A2204F041FA331C07CD07C32A688B4D1A6001F091FA0322894B8A4FE2
:401580005C629A62013ADA62884A894B116864200B40C021C9040B4313608022854952040B68854E13430B6084490B6813430B6083490B6813430B602B6808225B005B0854
:4015C0002B6080231B062B603B6893433B6003F059FF7C4B7C4A136003F06AFE221C9321802002F013FF01238021784A81201370009A7E321170009A7F321470009A9371DE
:401600007F2231680A403260019A7821D373221C02F0FCFE62B66C4B04950C970F9300963C4D6B1DDB7F002B07D1812002F098FE0028F5D101F050FBF2E703F029FF634F46
:40164000AB6878801B0705D580B201F0F9FA002800D167E12A8B7B889A4206D01F2002F07FFE002801D02B8B7B802021788801F0B3FA7888212101F0AFFAEB7B002B00D02E
:4016800050E1534B1B681B0705D5524B51331B78002B00D146E1EB7D002B00D0FBE0788801F0CEFA012811D1AB7F032B02D0AB7F072B0BD10F23AB772B7C002B02D1464B17
:4016C0002B836B830823AA689A43AA602B7C002B00D027E1AB7F0F2B03D0AB7F0A2B00D020E17B88002B79D02220AB8302F04CFE85E0C046594300000A1000008000002035
:401700004C5400000CED00E00400FA05005A000008060020F0060020000005401C01002000000101882800401000FE00480F0000C80F0000001000E0E92F0000580000205F
:40174000000500208400002044F1FF0F10050020C07F0000180500209810000099100000511000005010000052100000531000005E1000009C01002080E100E00000034026
:401780006588EDAC540000203542000018D0000010D0000014D00000DF2E0000BC06002000000840FC000140CC00084000010240FFFFFFF008000440000104400801044076
:4017C0000802044000020080C00008401C020020E80600207C06002004040000222002F0BFFD00280BD13B79002B05D10C219D4A223002F00BFE00E0A88300233B71142102
:40180000AC8B64204942A4B203F0C0FF00281BD0788801F015FA012816D12B7E002B03D1FB78013B022B06D96B7E002B0CD1BB78013B022B08D880230122A968DB000B4367
:40184000EA75AB607A716DE0002C6BD1AB7F0F2B0AD1083BAB77844B4F331B78012B61D10233AB7780200AE0AB7F0A2B5AD1252002F076FD002807D107238030AB771B212B
:40188000221C02F0C3FD4DE02B7C002B4AD1774B2B836B8346E02A7C002A43D12B7B74499B07DB0FCB181C7E0423211C99432CD07B79002B02D0BC717A710BE0BB79A34201
:4018C00008D06C4B65331B78002B03D1AA20BC7103F096FC631E9A013F2367493031087803401343F0220B700C21049B12019B588B43032C01D104390B4304998A589A42F7
:4019000003D0F0225D4912018B5014216420494203F03CFF002805D18023AA681B011343E875AB606B7C002B3FD08022AB6892001A4003D00023AB6002332EE0D90703D571
:40194000AA6001F0C9F929E05A051DD54C4A1340AB602B7C002B05D102222B7B93432B730823AB7701222B7B9B07DB0F5A402A75444A002B03D0136843490B4302E011685F
:40198000424B0B40136009E01A0507D5404A1340AB602B7C002B01D10733AB77EA7FAB7F9A4200D1BEE000236B74AB7FDBB2EB77A87F02380D2800D9B4E003F02DFF07B33B
:4019C000B3B3B33C6DB3B3B1B1B3B132A12003F017FC002401F04CF92E4A2301D3181A7D1E2A06D91A7D272A03D8187DC0B202F0CBFC01340F2CEFD1012000244042AC60DB
:401A000003F0A8F9201C01F08FF8012001F08CF823203221221CEC7502F0F8FC0123EB737FE0262002F0B0FC0823AA689A430123AA60FB7175E00723EB77AB7701F018F92F
:401A4000002001F05DF8084C0021231C503318785134431E9841023003F022F9002323705EE0C0469D2700007C06002004040000F006002008060020000500200000084021
:401A8000FFFBFFFFC400084004000100FBFFFEFFFFF7FFFF1C01002000241C22BA4B84200633DC772B7B6C759343143A1343073A13432B73EC7303F0A3FBB44B1B78A342C1
:401AC0002ED020222B7BB24E93432B73B14B74635C66331C6B331C70331C6C331C7002F083FCAC4B201C52331C7003F01DF90120A84B40421C6603F02DF90E22A648211CBA
:401B000003F074FF331C012263331A70331C802067331C701A235C36C000337003F022F901236B749A4E331C5C331B78341C01939A4B1A68520503D5321C002161321170FF
:401B4000974A12781B68012A0FD1002B00D1D7E301F0A4FC231C5C331B78019A934200D1CEE300238E4A137003E0002B01D001F095FC231C5C3318780138562800D9BFE363
:401B800003F054FE6300570066007700DE00EF001A01BE03BE03BE03BE03BE03BE03BE03BE03BE03BE03BE03BE03BE03BE03BE03BE03BE03BE0338014D015F016A01230258
:401BC00041026102A502BC02E60209031F03BE03BE03BE03BE03BE03BE03BE03BE03BE03BE03BE03BE03BE03BE03BE03BE03BE03BE03BE03BE03BE03BE03BE03BE03BE03EB
:401C0000BE03BE03BE03BE03BE03BE03BE0367033A034D036C036E0357035703570357035703740357037003BE037D03BE039E03B1030420002103F0CDF9012801D100F040
:401C40008AFC5C34052300F088FC02F02DF957E302F02AF9231C03225C331A704D4B51331B78012B00D04BE36434237002F052FF46E3221C6B3213780133DBB2032B0ED922
:401C800003231370221C65321278012A00D109E2404A51321278012A74D01C2372E0137002F08AFD061EFBD103F070FE3D4B3E4A9E6013683D4901900B4313603C4B049ACB
:401CC0000A20936703F0DEFB8022049BD2021B6F01981343049A136703F05CFE314B9A68A0231B011A42F9D02E4B9A6880239B001340D5D1BA68120511D402F06FFD9A2097
:401D000003F07EFA0120404203F024F8214B51331B78002B0ED05C34142300F01EFC254A5370137093701371D3705371D37193711372E2E701235C34EB73223300F00DFCF0
:401D400000251C4B0D205D70291C1D709D7003F041F9061E012E00D1A7E25C34042300F0FCFB0021134B032059701970997003F031F90128F1D1074B51331A780A23002AC2
:401D800000D112335C34E8E3F00600209B100000080600207C06002065060020E8060020690600201C020020A40008400001040093730E0038070020D54D2B1C51331A78D8
:401DC000002A09D1231C5D331B78012B0BD16421072002F01BFB06E0062002F0D5FA8020800202F0B7FF01265235301C2E7002F09BFF62E2022002F0C7FA8020800102F0DA
:401E0000A9FF0022C34B5C345A701A709A701A71DA705A71DA719A711A721B239DE31421002664204942EE7303F0B0FC012800D066E2231C5E331E705C3402F06BFE1C2369
:401E40008BE3062002F0A0FA8020800202F082FFE12108204900F9E1231C01220027653300201A7002F090FA0820EF736B3402F08BFAA94802F06EFF277000F00FFEB56B75
:401E800002976B6808970D932B6809975B045B0F0E93A24B0A97DF603B1C0193A04B019A1B78934264D99F4B019A0633DB7FD340DB0759D59C4B9400E41800232F1D05933E
:401EC000059B0E9A93424FD02268984B1340984A934203D1019B029301230993E378FA789B0992093AD13A681203920D0392002B34D123681B039B0D9A422FD1201C111CA2
:401F000003F014FA854EF0603B889B059B0D834224D3FA21238803989B059B0D5843F430FF3049000B9303F08BFC039B089A73610B9B07903061B36190420FD3099B002B45
:401F400002D0039B642B09D0059B0021581CC0B200F036FD079B089301230A93059B04370133DBB20593ABE7019B0133DBB294E70A9B002B24D1029BFA219F006A4B674E9D
:401F8000FF183B6849001C03A40D201C74613D88AD05AD0D6843F430B561FF3003F050FC0D9B30619B059B0DAB4200D2B361211C381C03F0BBF9F0600120011C00F000FDB2
:401FC0001E225C4B5C331A709AE1514B554AD96B3F331B7891635B06B16B5B0F9B005B580220536354490022012302F0C3FE051E012D00D025E606201B210022613402F014
:4020000005FA25707CE1062002F0BEF9072002F0BBF9C020C00202F09DFEFA2100220320490002F0F3F93A4BDA6D1B6E9A4200D10FE1424B0433DB7F002B00D009E1F36A0B
:402040001B69984705E1032002F09EF98020C00102F080FE231C60331A782D4D012A04D100221A70364B188802E0EB6D9805800D2B1C48331B78012B02D1F36A9B6801E0F6
:40208000F36A5B689847E86D264B28669B6B5B0101D503200DE00003800D142103F076FB002802D002F0A4FF2AE1F36ADB689847012002F0ABFFEA6D224B1340C822D202B1
:4020C000934201D1022300E003233B7743E20720002102F07FFF1C4B1B78012805D0002B00D1AEE502F07DFFABE5002B00D132E2002102200A1C00F027FF2CE2044B1349B2
:4021000046331B780022042002F034FE95E5C0467C06002038070020000808001C02002056100000000500207C10000000FC0FD00090011008060020B8060020F0060020A5
:402140005A10000000FC0F00EC060020980600200123EB7302F042FB01200025404202F0F9FD336A5C34DB699847F36A1B699847CF4ED0492A1C281C356602F047F9523694
:40218000281C357002F0D0FD1820CB492A1C02F03DF92423E1E1182002F0E2F8002822D01020502103F0F2FA021E06D11820C34902F02CF925235C342370012003F0DEF96E
:4021C0009EE0182002F0CCF800280CD014216420494203F0DBFA0128EFD1173002F0D4F85C341A23E8E7231C65331B78012B00D158E75C341A23B0E1132002F0C5F8802053
:40220000C00502F0A7FD736ADB689847736A051CDB689847291C437F00220F2060E001F001FE031C013B5942594103204B42184019E001F0F7FD01280ED1231C5C331B78BD
:4022400019214E3B012B00D814311120002202F0DDF86134012380E1002004E0042002E0012000E0062001F0FFFD49E0B26B336A1168101D4904490F5B6998476BE1336B45
:402280000025197F03234B438D48C21855701D5495700D2002F09EFE061E012E05D007235C34237002F09DFE2AE09B2002F0A8FF06201B212A1C02F0A9F8613426701FE043
:4022C000B36B0F205A687F4B3A62591C3F231340802252421343CB77002201237949203102F048FD37E101F09DFD012800D12CE102F077FE231C5C331B78052B00D02AE164
:40230000704D6A1DD17F2B7F2F1C994271D02B7FDBB2D377287FC0B203286AD804236A4C03F07AFA02021F42009B01261A68DF231340009A301C1360009B009A1B68B343A8
:40234000DBB21360FB2322681340236003F076F82368B343DBB22360F72322681340236047E00126226800209A43D2B21343236003F064F8322003F001F92368009AB34398
:40238000DBB233432360009B05201B68B343DBB23343136003F0F2F8301C03F04FF8009B1A68DF23134022E00126226800209A43D2B21343236003F041F8322003F0DEF8BF
:4023C000202123680520B343DBB233432360009B1A688A43D3B2009A0B43136003F0CEF8301C03F02BF8009B1B68B343DBB2009A136003F0CBFA354C061CE37A012B05D024
:40240000022B0AD1892001F0BFFF04E0892064212F4A01F0FBFF0023E372301C03F0BAFA00F026FDBB1DDA7F2A4C002A29D00026DE770123A677E373E67702F0CFF9264BE4
:40244000301C5C331E703B1C2A33DE77DE7700F06BFB012000F068FB154B51331B78B34201D102F04FF83B1C2933DA7FD2B2002AF9D13B1C01214C3319700220111C00F010
:4024800063FD3B1C4C331E78002E29D000F0DCFF002801D1FFF7C4F80121104A069B9B580B4306998B5002F0D5FFFFF7B9F8C0467C06002088130000EE0200004D080000E5
:4024C000380700201C020020000204401C010020FD280000F006002008060020880E000003F054FA227B02909A4BD2070DD41A1C63321278002A08D1A27F0126032A04D00D
:40250000A67F073E71427141CEB21A1C61321278002A00D108E1627C002A00D104E1A268002A00D000E18C4A1268002A00D0FBE05C331B780432191C914303290FD0132BA3
:402540000DD01C2B00D0EFE009E0002102200A1C00F0FAFCCEE607235C342370D0E6002E00D1EFE00123012601937C4A069B06999B5833438B5002F01FF9002800D0C4E00C
:40258000A37F032B43D13B1C4D331E70228B744B9A4204D0D3B2002B01D0130A1FD1802014247049C0000B6803430B606E4B6F4918680140196018686D4901406D481960E3
:4025C00001682965214301608020196800060143196008210C9B1B680B430C990B6080239B009A4204D1C021634A13688B4305E0022A04D1604A614B11680B4013600C2124
:402600005F4B604A196013680B43136041E0A37F072B04D13B1C02224D331A7039E0A37F082B2FD13B1C03224D331A7002F040FE554B5648198889B203F002F9041E032C45
:4026400000D8042403F0A2F9514BE4B26B6580239B001C430F9B061C1C60012002F012FF0222474B44491A6008684A4B0340202003430B604349301C0B6813430B6003F0CC
:4026800089F906E0A37FDBB2042B02D13A1C4D3213703B1C4D331A78D31E022B06D81020374B384918600B6803430B60931E032B25D82D490C68022A07D1374B96201C4017
:4026C00010231C430C6002F0DDFEF0212A4A890113682B480B43202113602A4A016013680B4313603B1C4D331B78042B05D04918016013680B43136001E0A30205D400F044
:40270000A3FE002801D002F0A5FE02F01FFA019B002B04D080200121002201F077FE029803F038F9FEF77CFF002EF8D0228B0C4B9A4205D1212001F027FE202001F024FEF6
:40274000002310E702F0A4FE238B80B28342E6D108E7C04608060020E8060020880E000002020000C8000840C4000840FFFFFFFEFFFFFFFDD400084090000840FFFCFFFF86
:4027800098000840A800084096000020006B010089570000CFFFFDFF1FF0FFFF0122014B1A70704720020020F7B5324908780091032802D0042823D05BE02F4B2F4C0233C5
:4027C000DA7F2F4BE76A1D1C50352E781D1C51352D78B6012D022E433F253D402E431D1C52352D785533AD022E431D78331CED022B43244D52036D7D2D032B431343E3620D
:402800008022214C52002578521B082A00D9082282231E4F9B00D6B2FA58EA3BFF3B13400822D31ADBB2B4463A1C9E4200D99C46634669460027CB71CB79FEB29E4209D2C6
:402840000E4E7619F65D0137B44690266146B6009151F2E75B19237004280AD00423009901200B70F8230A491B01D050535803435350F7BD250100204402002000050020EE
:402880007C060020F00600202601002000000540880F0000134B30B51A680220520052081A6000220124104910250A700F4908700F48DA661958A143195001210D4C4942B6
:4028C000083819501859A8431851F420000119508030195080201968000601431960064B1A7030BD000005402601002025010020880F0000480F00002701002008B5FFF76C
:40290000C9FF08BDC2222A4B920099581F22F0B5114085B00C1C1A1C082900D908240023E4B2D9B2A14206D2D0218900515802A819540133F5E7002C34D01E491E4D0A7861
:402940002B780191032A03D0052A2DD1002110E0802202AB1B78013CE4B219195200914222DC0021154A2B70137051708C4219D00131802218195200904215DC0F4E3278A3
:402980009A4211D8777802ABB01C221CC019C91802F0E8FF0523019AE71913702B787770E4182C70012000E0002005B0F0BDC04600000540250100202601002074020020C0
:4029C0002B4BF0B51C1C2B4A5C3412688C469205910D2288284F920A92020A432280274AD96D126839409205120B0A43DA6500222349DA630E780121224C0E40247865465E
:402A00000C408C402643FB240D402640AD00F43C20402E436934A64300011B4C3043E07064461A48944201D102780A401C1C08253C34E178D200A9430A43E270144AD96B3F
:402A400012680F409205120B1743DF630278002A02D0104A128801E00F4A1268998F9205890A8902920D0A4307489A87F0BDC0467C0600202C020020FF03F0FF3002002000
:402A80005C1000005D100000B806002059100000340200205A10000028020020F7B5144B0633DC7F134BE6091D7800231A1CAA4219D2012191400C4213D00F48910009180E
:402AC0000F680E48991D890041184F60002B07D1F10001910821C77F8F4301993943C17701330132E3E7054A46321370F7BDC04600050020561000007C1000007C060020BF
:402B000038B5084C051C431E9841231C5133197802304B1E99415034C9B202F0C1F8257038BDC0467C060020F0B51F4A85B0117803901E4B032923D00321F0260C24117082
:402B40001B4A360191591420A14301911C681949194F0C4002943F243D681849054309783D60174F2140D559A5430D43D551154FD559A5432943D15101999151029A1A6039
:402B8000039A1968002A05D10F4A0A401A6019680E4A04E00E4A0A401A6019680D4A0A401A6005B0F0BDC04694000020C400084000000840FFFFFFF3D400084079F0FF0F72
:402BC000040F0000080F0000FFFFFFFEFFFFBFFFFFFFFFFDFFFF7FFFF7B50C1C174F203C01AAE4B210803E19125D337E081C00923D1C934204D1B37601F0C6FB388B1BE04E
:402C0000B37E009A934210D03B7BDA0701D5DB0603D5AB7F8C21092B00D10C21002201F0F5FB009B2C19A37605E001F099FB002801D1B37E3376288BFEBDC046F006002021
:402C4000C2B20004030E00200849097C81420CD1511E022902D80130002B06D0013B0020022B02D850425041C0B27047F0060020164B80201A1C70B500250126144C65322B
:402C80005C33C00015701E70E57302F06BF82368281CDB6998472368301CDB6998472022237B93432373DA070ED5B34323738520231DDD7702F0A4FA064B51331B78AB425F
:402CC00002D163681B69984770BDC04608060020F00600207C06002038B500210C22484802F084FE474A484B484D1A600023484C484A6B601370236808215B005B082360BB
:402D00008023454A1B062360136864208B43136002F0B8FB96235B00E367404A404BDA67404A414B11680B40297A002901D03F4902E0012129723E490B43136003235B427B
:402D4000E360022063610021236101F0A9FF0822A36880219343B522A360236A92009B0B9B031343334A2362136889050B431360314A324B116807250B40314931480B43B8
:402D800003211360304AA358AB430B43A3502F4A0139A358AB430B43A3500C3AA3580A318B43A35080222A492A4B92000A601860294B2A481A60F13AFF3A0A6028490860B9
:402DC0001A60C022274B92011A600020FFF798FE254C0021A577254D05342B1C503318785135431E9841023001F05AFF00232B700133A372E27F002A00D1E37738BDC046A5
:402E0000FC0600205D4A0000D4040020740300200000084069020020CC0008400A80010104000840C4000840FFFFF16F0A080E000A083E00B8000840BC000840E3C0FFFFFC
:402E40001431000001480000180F00000C0F000080E100E06400002000E100E0014C000050000020A4000840F00600207C060020F7B502F08BFD1C4C0090677A002F2ED06F
:402E80001A4B1A780193002A29D1658963195E7B002E05D0191C16480E31203202F062FD01226319187B019B22351A70114BADB2191C7E310870191C9A717F237F310E4AF8
:402EC0000E7011680B4013601023FF339D4201D8658101E000236381034A7B1E5372009802F058FDF7BDC046740300201C02002080050020000500200001044008B5C30783
:402F000018D500220C4B1A700C4B5B7A93420FD10B4A111C7E310B70111C7F310B7093718023084A5B4211680B43DBB2136001E0FFF79EFF08BDC0461C020020740300204B
:402F40000005002000010440F7B50E1C0092019002F01CFD051C2248224A477A011C082F11D1938B002B01D11133FF33CB181A1C81210024163A153B281C11701C7002F0A2
:402F800009FD201C2AE06946948B097903191973A31C9BB29383621C92B282181673002E08D0009A002A05D00C30111CC018202202F0D8FC10222234A4B2FF32094B9442A5
:402FC00001D89C8301E000229A83054A7B1C5372FFF74EFF281C02F0DDFC0120FEBDC0467403002074040020E8210123F0B5BA4C0901625885B01A4204D0B84822589A4353
:4030000022506350B64B0125E35801930223019AFF331A4205D00222B24B1A7000231D1C0193019BDB0600D49EE1AF4B1A780293042A02D1FFF7B8FB75E1FFF763FC051E4E
:4030400000D170E1029B1B78032B00D16BE1052B00D067E1A5490B78081C4A78BF2B05D9A3480231181802F07DFC5CE1272B00D19CE00CD8082B27D004D8062B20D0072B7A
:4030800039D0C5E1202B48D0262B69D0C0E14C2B00D114E106D8282B00D1B1E0482B00D1FAE0B5E14E2B00D111E100D20BE1582B00D0ADE101238A781A408E4B4F3309E1AF
:4030C0008878FFF71BFF2EE10523012A00D8A2E18978522900D09EE1C278012A16D0002A00D098E1844B854901205A728A835A81FFF704FF78E08A7805234A2A00D08AE1DE
:4031000072B67F497F480A6802430A607E497F480A6892B202430A607DE1012A00D877E18978C2780923022900D974E1900700D071E11C2A00D96EE1704E331C3C3319701F
:40314000331C91083D3320361970301C704902F009FC1C20311C01F069FF00287AD0E2E001206C4B7F261A78031C93401A1C8978013A0E400923324200D14CE15C4B5E1D85
:40318000F77F0393B9420BD052229446594B9C4462461278002A03D051331B78002B03D1039B0533D9771FE0F17722E05A4B8A78197801238B407F20191C104001390923D6
:4031C000014200D127E14A4EB31DDF7FBA4209D0484B191C52310978002903D051331B78012B03D10636F277022314E102200636F277002101F01AFF0128F5D0F77729E023
:4032000088780A38092800D904E1012302F00EFB0A00110019001C00240002012700300033003800334B5133187843425841063008E0304B082051331B78002B02D0043844
:4032400000E00320002186E70920002101F0EEFE0128C9D00D23DEE00A20002117E0812001F092F81B210022802001F0CFF8BBE72A4A137057E021490A1C3C32137004E09D
:403280001E4902220B1C3C331A700C20203101F0CDFE0128DED146E00523032A00D8BAE04B79C2781906037912021B040B4381780B4313431A4A13400D4A936494E70C4BD7
:4032C0008A784C3306E00A4B8A784D3302E0084B8A784E331A7087E700000540880E00004C0F0000270100202501002074020020000500207C060020740300207404002090
:40330000800000204C4200000CED00E00400FA05C0050020551000005610000041020020FEFFFF3F0025812102228020029B89001A70635840020343635060583A4B034084
:4033400063500121394823588B432350F82310201B01E1503649635883436350F42330211B01E150334B1A70019B5B0630D50123304E314F33703B78022B02D0032B08D0B4
:4033800022E00323626E3B70D2060FD5FFF70CFA0CE0636EDB0617D5FFF7B4FA002813D03B78052B10D0FFF7FFF901E0002D0BD0F4233022102101251B01E2501C4AA35870
:4033C0000B43A350E56603E002230025E3663370F423019A1B01E250002D13D0174B184AD558EB0701D5FFF7DFF9F8231B01E550144BE558EB0701D5FFF784FAFC231B0112
:40340000E5500EE0FFF746FA02220A4B1A7008E0052300E00A230021181C0A1CFFF794FD81E705B0F0BDC046FFFFFEFF880F0000480F000027010020250100208C0F00002F
:4034400000000540CC0F000008B5892000F088FF0023984207D1054A1278022A03D1044B5A6E01239343181C08BDC046250100200000054008B5074B9B6C5B0608D5064A62
:40348000090108434032107001218720FFF75CFD08BDC0460005002074040020F7B50822C64B1F6817401A1C002F16D08F2001F0A7FE01F093F900F097FF0120404201F039
:4034C00049FCBF4B142251331B78012B00D00F32BC4B5C331A7000F0A0FC01251968294200D1A5E3281C01F035FCB74EB54CA66302F04CFAB54B1F6002F04CFA321CB44B2B
:4035000043CB43C243CB43C203CB03C2E36B1A0C0AD1AB4A5909503212780D40AA4203D101F066FD00F079FC5B045B0F0F20002B00D090E1A36B1B68184002380B2801D9C6
:4035400000F06BFC02F072F91401530099000C00DF001F0038002A0132014C0154010701231C5C331B780A2B01D000F056FC062000F00AFF8020800201F0ECFB05235C34D2
:40358000237000F04AFC8E4B1A1C51321278012A04D10F235C34237000F03FFC42331B78022B04D15C343B33237000F036FC02235C34237000F031FC221C5C321378191CF8
:4035C0001E390129D3D90A2BD1D07D4B191C51310978002903D12223137000F01EFC42331B78022BE3D13833137000F016FC8C2001F006FE221C5C321378272B19D008D80D
:40360000162B37D01E2B10D0052B01D000F005FC1CE03E2B11D0542B29D0312B01D000F0FCFB3323137000F0F8FB1F23137000F0F4FB2823137000F0F0FB664B5B7D013B87
:403640005842584141210B1A1370E6E3062000F09BFE8020800201F07DFB594B51331A780A23002A00D112335C342370D5E307231370D2E317231370CFE3251C8D205C35B8
:4036800001F0BEFD2B78312B2FD007D81E2B0DD0272B23D0102B00D0BFE31BE03B2B19D03E2B29D0382B00D0B7E313E0062000F06BFE434B52331B78012B05D106330C2071
:4036C0002B7001F0A3FCA8E31C2310202B7001F09DFCA2E307235C3423709EE32B23002001212B70FFF7C6FE97E301203223011C2B70FFF7BFFE90E33F23022001212B7039
:40370000FFF7B8FE89E38A205C3401F079FD2378352B0ED005D81F2B00D07EE3202323707BE3362B14D0402B00D076E34223237073E32323284A0120303211780B4008210C
:403740000B4300211370FFF795FE1A23237064E33723237061E31B0C00D05EE300F044FE0120404201F0F6FA06235C34237054E38B205C3401F044FD2378072B00D04CE3DC
:40378000164B1B78012B00D047E30D4B51331B78002B00D041E31F3323703EE300200121FFF768FE02235C34237036E30120011CFFF760FE02235C3423702EE3E806002063
:4037C0007C06002008060020440600204407002018070020F0060020000500205910000002200121FFF746FE02235C34237014E38E2001F005FD221C5C321378272B0FD05B
:4038000002D81E2B1AD008E3312B10D03E2B00D003E302203F23011C1370FFF72BFEFCE22B23002002211370FFF724FEF5E23223012002211370FFF71DFEEEE2062000F0FE
:40384000A3FDC14B52331A780723012A00D015335C342370E1E2A26B1168084001380E2800D9DAE201F0E2FF0F00370041008F00D902D902D902D902D902D902D902D902A0
:40388000D902D902A700B14B9B6CDB0506D54904490F890004319120FFF756FBAA4B5C341A1C51321278002A09D12378052B00D1B3E2352B00D1B0E21D232370ADE22278D6
:4038C000382A02D139232370A7E242331B78012B00D0A2E224E69C4B51331B78012B00D09BE25C340A33237097E2974B191C523108781D1C012800D08FE2DE6D94493140E3
:40390000C8267602B14200D087E2924951330631C97F1B78994200D07FE253681B0F082B05D162342070A13001F06AFC75E2052B00D072E28022884E5203336F322013437A
:40394000336701F09FFD8022336F52021343336714203921002200F059FD142000F000FD0028FAD1326F7D4B513513403367326F7B4B134033672A781423002A00D10F3348
:403980005C34237049E2714B9B6C9B0506D54904490F890004319220FFF7D6FA5C342378102B05D03B2B00D037E23C23237034E21123237031E2654DAB6C01951B0606D5D9
:4039C0004904490F890004319020FFF7BDFA231C5C331A78512A02D101321A701DE2A06B4168090400D420E1574B011D50331E780379002E10D1DF06FF0E052F0CDC3F272F
:403A00001D1CBD4308D100684004400F012803D056235C34237000E2D806C00E0138052800D9F4E001F0F8FE03355A7FB3E8172A24D04B2A03D0072A00D0EEE10AE03F2215
:403A40009343403B1A1C514251414A235C345A1A2270E2E13F22934300D0DEE1002E00D0DBE1236A081C1B68984713200D21321C00F0CCFC46235C342370CEE13F22934368
:403A8000403B1A1C5142514119235C345A1A2270C3E1072A0DD04C2A00D0BEE10D3A9343403B1A1C514251414A235C345A1A2270B3E13F22934300D0AFE1002E00D0ACE11B
:403AC000231C07325C331A70236A081C5B6898470D21321C132000F099FC9EE1072A0DD04D2A00D099E10E3A9343403B1A1C514251414A235C345A1A22708EE13F229343C3
:403B000000D08AE1002E00D087E1231C07325C331A70236A081C9B6898470D21321C132000F074FC79E1072A1CD04E2A00D074E10F3A9343403B1A1C514251414A235C34AB
:403B40005A1A227069E1C0467C0600200005002000FC0F00F006002000000840FFFFFEFFFFFFEFFF3F22934300D056E1002E00D053E1231C07325C331A70236A081CDB68E3
:403B800098471721321C132000F040FC45E1072A1DD04F2A00D040E1103A9343402B11D15C340933237038E1802015688004054000D10DE101F0CEF8984B5C331B78402BE2
:403BC00000D02AE10422954B5C331A7025E13F22934300D021E1002E00D01EE1231C07325C331A70236A081C1B6998471721321C132000F00BFC10E1072A00D00DE1383220
:403C0000934300D009E15C345033237005E1002E00D002E13F22934300D0FEE0019D4E352B78DB0700D4F3E6F7E007221A70F4E080201968800001420AD001F08BF8774BFD
:403C40005C331A78462A00D0E7E001321A70E4E080201968C000014202D001F07BF8DCE080201968C00501420AD001F073F86B4B5C331A78462A00D0CFE03F3A1A70CCE0B1
:403C8000802019680001014206D001F063F80422624B5C331A70C0E080241968A402214241D09E2001F0ACFA201C01F053F85B4B191C5C310A78272A26D00CD8102A1BD0AB
:403CC00004D8052A1CD00A2A1AD0A6E0162A26D01E2A15D0A1E03B2A0ED004D8312A16D0382A09D099E03E2A15D0542A00D094E007225C331A7090E007225C331A708CE0C2
:403D000004225C331A7088E02B230B7085E032225C331A7081E03F225C331A707DE019225C331A7079E080201968C002014209D001F010F8394B5C331A78072A6DD1173207
:403D40001A706AE080201B680003034206D001F001F80422314B5C331A705EE013685B040BD58020C00100F0F5FF04222B4B14205C331A7001F04AF94FE0802014684001A3
:403D8000044008D000F0E6FF244B5C331B78362B43D1FFF7C5FB80201368800103420AD000F0D8FF1E4BDC731C4B5C331B78352B33D1FFF7B5FB80201368C004034200D194
:403DC000F2E600F0C7FF1722144B5C331A7024E080201368400503421FD000F0BBFF0F4C636B002B03D00220291C98476563221C5C3213784E2B06D84B2B08D2172B0CD1F0
:403E00001923137009E04F2B05D0512B05D14A235C34237001E004231370F7BD08060020F006002010B50F4C0F20216B0A7F4B7F00F0A0FF231C021E012A11D0211C693127
:403E40000978002909D1002A07D0226B127F002A03D1221C05315C32117000206933187010BDC0460806002038B5051C112000F08BFA8020400500F06DFF0A4C002D04D18C
:403E8000231C5C331B78052B03D0231C07225C331A70636B002B02D0281CA16B98470023636338BD0806002038B5002400F096FC144BDC7300F098FA0120404200F04AFF78
:403EC000114D201C2B1C52331C7000F02DFF2B1C55331C700D4B2C661A1C623214701A1C191C63321470012261310A70191C5C310A701A1C67331C70054B6B3214701C70D9
:403F000038BDC046F00600207C06002008060020C0040020704770470022024B01200233DA7770474402002000487047440200200120704701207047002070477047000078
:403F4000024B0133D87FC0B27047C04644020020024B0233D87FC0B27047C046440200200120024B0233D8777047C0464402002001207047012070470120704700207047F2
:403F8000002008B5064B0233D877064B51331B78012B02D1181C044A5375FEF7B1FD08BD440200207C060020F006002008B53F230168084A0B401160802149420B43137085
:403FC00001238020537700238000137700F0CAFE08BDC0464402002008B5064B50331B78002B06D1044B4E331B78DB0701D4FFF7DDFF08BD7C0600200005002008B5064B71
:4040000050331B78002B06D1044B4E331B78DB0701D4FFF7CBFF08BD7C0600200005002038B5194B50331B78002B2BD180235B015A8C4488D2B2198C042A21D9C918CD883C
:404040000B78A54208D1043B104A9B105377DBB201339B00002405E0D21AD2B2C918002AEDD10DE0201D984203D00D581551041CF8E7802000238000137700F073FE01E0A1
:40408000FFF794FF38BDC0467C0600204402002010B5164B50331B78002B25D180225201D28B042A02D9131F9B051B0EFF2241881202914216D1002B14D080210C4A4901B9
:4040C00053778C8B00219B000A4820184058505004319942F8D1802000238000137700F041FE01E0FFF762FF10BDC0467C060020440200200410000010B5164B50331B7829
:40410000002B25D180225201528B042A02D9131F9B051B0EFF2241881202914216D1002B14D080210C4A490153770C8B00219B000A4820184058505004319942F8D1802028
:4041400000238000137700F00DFE01E0FFF72EFF10BDC0467C0600204402002004100000802008B5054B064A4C331B7880009B069B0F137700F0F6FD08BDC04600050020ED
:404180004402002008B50B4B0B4A513319780B4B012905D1581DC07F7F2801D9117704E04C331B781B079B0F13778020800000F0D9FD08BD7C0600204402002000050020E5
:4041C00008B5064B80204C331A7803231340044A8000137700F0C6FD08BDC046000500204402002070B50F4D0F4C2B6C22889BB2061C934213D00D4B1A7806231340062B4B
:404200000AD12B6C22889BB2934208D10A2001F039F9074B1B68F4E7642001F033F92E64268070BD00000340B8040020E8100000C00008400123F7B5434E444D73646B8091
:40424000F36BA9889AB21B041B0C914202D3802040021B1800275B1A9BB20093AA803C493B01CA18147A0191E4B2FF2C32D0009950680531884203D951680098091A00E0B3
:4042800000215160019AD3185A68002A22D1FF211A1C19722F4908320B78013B0B705368002B02D05368201C98471F2C07D8142C10D880200001A04000F054FD0AE0233C0F
:4042C000E3B2042B06D80120A040041C224B9A6814439C6001370F2FC1D11E4C2378002B1CD0FF200022000201991301CB18197AFF2903D05968814200D2586801320F2A31
:40430000F2D1F26BAB8891B21204120C8B4202D3802149025218D31A9BB201E0FF200002053398428CD3AB8880B2E880C01880B2FFF758FF00236B802378002B02D1202201
:40434000064B1A60F7BDC04600000340B80400202801002018020020F006002080E100E00023FF280CD00F33013BDBB205491A018A18127A824202D0002BF5D100E001236C
:40438000181C70472801002010B5041C01F0FEFA0F23FF2C1DD0013B0F49DBB21A018A18111C127A0831A24209D1FF230B4A0B701378013BDBB21370002B03D009E0002B48
:4043C000E9D106E0064B5B88002B02D12022054B1A6001F0DFFA10BD2801002018020020B804002080E100E010B50024064A2301D3181A7A1F2A03D8187AC0B2FFF7C4FFEB
:4044000001340F2CF2D110BD28010020F7B5051C0E1C00920024FF2865D001F0B7FA0190FF20324A210157183F7AE3B2FF2F00D1181C5118097AA94204D12D480178013976
:40444000017006E001340F2CEBD1031C0024FF2846D028481B01009C0088D118D652CC6046430D72244D4E606888214C002833D16E462248C06B3080844630882678002E55
:404480001AD06146AE880904090C864202D3802040020918D3185A68891B89B2891859605968EA88914217D2586880B2E880801980B2FFF797FE0FE0FF224B68A8801202EF
:4044C000934200D9131C9BB2181880B2EB80FFF789FE20220A4B1A602378013323700124019801F057FA201CFEBDC04628010020180200201A020020B804002000000340FA
:4045000000E100E070B50025174B184C1D700134E37FAB4226D016492A1C8420FFF776FF1020291C01F032F9061EAE4204D18420FFF72AFFE67715E00E4B9B7F072B04D0E7
:404540000D4B5C331B78002B08D1012001F02EF80A210A4A8F20FFF759FF03E08420FFF713FFE577012070BD38020020440200208A020000F006002008060020814500007A
:4045800010B58420FFF7ECFE002814D01020002101F0FCF8041E08D101F008F88420FFF7F3FE064B0133DC7707E00A21044A8F20FFF72CFF01E000F0F9FF10BD44020020F5
:4045C000814500000122142110B5124C8320631CDA77FF310022FFF719FF8320FFF7C0FE002807D18320FFF7BBFE00280DD10134E0770EE00F216420494201F0C7F8002867
:40460000F0D1022000F0BAFFE7E78320FFF7BCFE012010BD4402002008B50C4B0133DB7F002B10D0012000F0C1FF0A21642001F0ADF8074900228420FFF7E8FE8E200A21EB
:40464000044AFFF7E3FE012008BDC046440200208A0200005946000010B58420FFF780FE002815D01020002101F090F8041E09D100F09CFF8420FFF787FE084B0222013393
:40468000DC7708E00A21064A8E20FFF7BFFE04E000F08CFF0322034B1A7210BD4402002059460000B804002070B52F4D01236A1CD47FE4B2002C53D1D3772C4B10265A7A88
:4046C000002A00D1543614210022FF3183205A72FFF79CFE1421301C494201F057F800280AD1002000F062FF8320FFF739FE00281FD10135E87734E0012000F057FF832054
:40470000FFF72EFE0028ECD01421301C494201F03DF80028E5D0022000F030FFEFE70F216420494201F032F8002807D1642000F0A9FE8320FFF714FE0028F0D18320FFF7AB
:4047400023FE0F216420494201F020F8041E04D0032000F013FF012403E00135E87700E01C1C201C70BDC04644020020B804002003280DD1002904D1002A02D10B4B0238BB
:4047800000E00B4B8022D20013430422104308E0002904D0002A02D1054B032001E00120024B044A906053627047C0460B4100000B43000000000840064B01205A682323D0
:4047C0001A4206D1044B987AC0B2002801D1D87AC0B2704700000840B80400200021054B054A5962A433186802401A60034B19737047C04600000840FCF5FDFFB8040020E4
:40480000F8B5894B894F1C68002C00D10AE1884D2C60E30402D50122864B1A70A30402D50022844B1A70230726D5834BFA697F491A40824B186882421ED1E02248681201E0
:4048400002405868824217D120262A68784832400FD1802688693603304388617848794906683140016080201A724000DB68984702E0036833430360630431D56F4B1A7C41
:4048800051B200290ADA6E496E4A086802400A60002240201A72DB68984721E0002A1AD0694B1B785B070ED5684B1B78002B0AD00A26674B013E0420F6B21B6800F0E2FD02
:4048C000002EF6D102E04B2000F0DCFD80223B6F120313433B67594B584A1B7C013B137423040FD5564A574B116880200B4013600022524B1A7210229A56DB68013200D0DD
:4049000004209847E3030FD54D4A4E4B116880200B4013600022494B1A7210229A56DB68013200D00820984701231C421DD0202128683F4A084202D1464A137015E0136889
:404940000B4313603D4B1A7A002A0ED000223C491A7208683B4A02400A6010229A568020DB68013200D004209847A3071AD520212B682F4A0B4202D013680B4313602F4BB8
:404980001A7A002A0ED000222D491A7208682D4A02400A6010229A568020DB68013200D004209847230507D500228020294B80011A70224BDB689847A30512D580201F4D2A
:4049C0000002EB6898472B7A002B0AD0002380201B4A2B7211681B4B40000B401360EB689847A30306D500221A4B10201A70134BDB689847E30509D58020114A164B116828
:404A000000010B4013600D4BDB689847630309D580200B4A104B116880000B401360074BDB689847F8BDC046AC0008400000084094000840C20400200F7E0000C80400204C
:404A4000A4000840F73FFEFFE8100000C5040020C0000840C3040020FFFEFBFF254BF7B5041C18422AD00025234A244B1168244E0B401360336B01965B045B0F0133291C9F
:404A8000019E0C3189007158AF008C4666461D490135CE51EFB21A489F42F0D343680D88DB055B0F013B1B042B430B608221136889020B431360436800F05CFC230412D510
:404AC000114B05221C600E4B5B685B045B0F012B04D0023B5A425A4107239A1A094B12041A6000F047FC094B1C4201D0084B1C60F7BDC04610200000A4000840FFF7FDFF4F
:404B0000000008401807002044070020CC0B000024020020012208B5084B1A70084B997CDA7C587CFFF724FE064B07491A1C94321160A4331A680A431A6008BDC404002024
:404B4000C804002000000840030A020070B500F01DFF224D061C2B78002B3BD0204C012B2AD10C22F0212368890093431D4A2360136864200B43082113601B4A13688B431A
:404B8000136000F07FFC194B1A68520052081A60174A1168174A116080211A6849040A4380211A601A6889040A431A60124A134B11680B40136003E0602223689343236077
:404BC0002B78033B022B03D8102223689343236000232B70301C00F0DDFE70BD69020020A800084090000840CC000840C40008406C020020D4000840C8000840FFFBFFFF8F
:404C000038B51D4B1C68002C35D01C4B1C6002231C422BD01A490A689A430A60194A1278002A18D0184D2A781A4214D08B20FFF797FB00280FD103232A781340032B03D14F
:404C4000124B8A30197803E0530704D48A2001210F4AFFF7DBFB0F4B0F4A18681A600F4B1B68002B02D00004C00F98477C231C4201D0FFF76BFF38BDB00008409800084052
:404C8000A8000840C5040020E8100000EF1000003D3F0000C0000840000200807002002070B51B4C061C637C0D1C834202D1A37C8B422CD0B31E012B28D8164BE27C1B7807
:404CC000002B03D0301C291CFFF752FD124B002D04D080211A68C9050A4302E019680F4A0A401A600E4B0F4A41219A62002D01D04221FF31032E01D1202211431A6F120CE3
:404D000012041A671A6F114319676674A57470BDC8040020C4040020C4000840FFFFFFBF000008404100410038B5084C051CE37C834209D0064B607C1B78A17C002B02D0C0
:404D40002A1CFFF715FDE57438BDC046C8040020C4040020024A1368834313607047C046E8060020024A1368184310607047C046E8060020F0B58FB0151C01930023844AFB
:404D8000041C55729D4208D18248031C50331B7851305E0103781B02334303206843105C4022019E22433603324340020243134306930123069A0392120B049207220498D2
:404DC0000240934205D801C99A0006AE90510133F0E703230293FFF7EFFC0028FBD100F0D5FD6D4B061C1B686C4F1B0706D5301C00F0D0FD3B689B0406D408E080233A6802
:404E00009B0113400CD0F2E7019B002B01D1022098E00F2CFBD1281C431E9841013091E05F4A1360042D6BD8281C5E4A00F0F4FC03080D1217008021890051605A4912E067
:404E40008021C900516059490DE0C021C9005160574908E0802109015160564903E0A021090151605449554A049851670721014001310591980006AFC05950498446181C8D
:404E80006746143080000F5001330599D8B28842F0D3E02303981B010340012041490343487C0B60454B02381B6F032819D88027BF0200F0B1FC020211116946097A3948CE
:404EC000002905D001390174802109030B4307E0FF2101743A4902E0FF20087439490B403B43394F39493A480F6001683943016001202C49087291693148014091611367D2
:404F0000301C00F047FDE622254B52001968114203D1224A12689204F5D50C221968114202D0204A127C02921A68520700D552E71B681B0700D46AE7184B1B689B0400D4CD
:404F400049E764E7032307216B43114E9A5D01320A409A55114B1B689B0406D5019B002B03D00F2C01D1002D0CD00D4B1A68D2050AD41B681B0608D50F3C631E9C41644290
:404F8000204002E0281C00E001200FB0F0BDC046380700207C060020E80600204407002024020020C804002018E30800181B0300D8600300984F0300789A0800000008408C
:404FC000FFFFF7FFFFFFF5FF08C0010094000840A40008400A1C002108B50B1CFFF7CAFE08BD002108B50C200A1CFDF7ADFF08BD08B5FEF759FF8023024A9B0091680B431C
:40500000936008BDF0060020FEE7000008B5054B9B6C9B0605D5044A012110708620FDF793FF08BD0005002000060020704BF0B51A1C6432127885B01C1C072A05D1CE33D7
:405040001B78012B08D00023CFE00023132A00D0CBE0012800D0C8E00023664DAA6E9A4200D0C2E0061C8020C000A163E263FFF779FE701E1B2800D9B6E0012300F0CCFBBC
:405080000E71767C7C7F82878A8DB490B493B496B499B4B49C9FA2A5A8ABAEB100252E1CD43423880093544B0533DB7F0193534B1B780393019BDB090293039B01229E42AF
:4050C00040D2B240019B13423AD08322B30052019B18474C1A68AB00E318DA67002D08D1211C0820029B7F31DA000B78834313430B70AB00E4187C34E3789B091FD12388BA
:40510000009A9805800D90420ADD92059B0A920D9B02134330222380A3789343A3700EE0A778BB069B0F0AD06E236421584300F087FB009B984202D930239F43A7700135E4
:405140000136BAE700992A4B5A2903D01A1CC132157002E0191CC1310A700A2264331A7042E0FDF79BFC6C3500230CE0221C6732137064340D2336E06434102333E064346A
:40518000382330E06C352B70643421232BE064343B2328E06434042325E06434052322E0643454231FE0643427231CE06434312319E064343E2316E064344B2313E064348C
:4051C0004C2310E064344D230DE064344E230AE064344F2307E06434482304E06434512301E05723643423700123181C05B0F0BD00060020800600200005002055100000EE
:40520000021C823838B52849292816D800F004FB3F17192F1515151535353535353515151515151515151515373715373737373735351515391515153B3D002328E002239E
:4052400026E01A4B70331B7BD806400F022803D0081C3030037008E03F250C1C2B40181C30342378AB4303432370032310E00B1C00203033187004230AE0062308E00B23F8
:4052800006E00C2304E00D2302E00E2300E0012301209840896C014204D00021101C0A1CFDF752FE38BDC0460005002080060020F7B500F06BFB0222164D174E37682B680C
:4052C00001932B6893432B6000F064FB0121134B3360134B1A680A431A601A68D207FCD40F4B1C6800F052FB02220E4B37601A60019B24022B60240E00F04CFB002C07D090
:405300009620211CC00200F09BFA074B80B21880F7BDC046A8000840C000084000020400880008409800084096000020F0B5051C00200E4A0E4B1478A400E418A34214D06D
:405340003F27DE78EA787240BA430CD1B6090AD11A681203920D914205D11A889205920D824200DD101C0433E8E7F0BD561000007C100000F8B52F4C0722271C0F23A569EC
:4053800038376E0A280C16402B402D0BC1B2FE722A40012B0BD1002A09D1787A03324243D25D964244D1814242D1BB7240E0042935D8214D6A352D78012D39D0002A09D16E
:4053C0000D2B07D13827BC46C5B2353F7D43A4446544AA700325271CC0B2454338377D19AF78002F02D06D78B54221D00325271C684338373818023D013985704670A942A3
:4054000006D8002A02D1032B12D101E00F2B0FD10120FFF7A7FC80239B01636408E0052906D10820FFF79EFC0022034B6A331A70F8BDC04600070020000600200823044909
:40544000C0000A689A43D2B2034013430B6070470001044008B500F099FA0421064B074A1B889BB21360064A13680B43136030BF00F090FA08BDC04652F1FF0F04000340D7
:4054800010ED00E008B50C23584300F075FA08BD0023F0B585B003AC2380304B1A1C7032127C1E1C002A56D17C331A782C4DD307DB0FDBB22B4F002B27D129682A4A0A40B2
:4054C0002A6000260093F3B201932A68274B01201A40274BF35C5B0213432B60FFF7D2FF7B689B0203D50136042EECD101966A46009B1279E25480222B68520013432B6062
:40550000009B012B27D00123DBE72B68920703D5184A1340B72202E0174A1340A622120113432B600120FFF7ADFF7B68C022191CD2031140914201D1032304E05B0201D51E
:40554000022300E001237C36238033789B0702D523881B022380208805B0F0BD80060020C400084000000840FFFEFFFFFFF1FFFF6C5A00001FF1FFFF0FF0FFFF10B5041C7B
:4055800080231B029C4205D9054800F0F5F9054BE418F5E70448604300F0EEF910BDC046000070170080FFFFE02E00000223044940000A689A43D2B2034013430B60704730
:4055C000000204400122F8B53B4C23689343236000239A003949032B01D839498958394801338150202BF4D172B6FF27CC22364B12011F60354B364D1A600322354B1A6000
:40560000354B21321A60354BB4321A60344A354B1A605022344B1A60344A354B1A6012232B6000F0B3F907223249061C0B68324893430B6031490B680078BB4303437F204A
:405640000B602F490B6893430B602E4A2E490B6812788343024013430B604D3800F08CF9301C00F097F99822B021284B52011A60274B284A09011A60274A1160274A284921
:405680001A6000220A602749196027490A60274919600421264B1960012326490B6026492A600A60254A1168002900D11160226813432360F8BDC0460000104009500000AE
:4056C0000012000000000020000002400001024030001040000004400800044000010440B60983000801044018010440AE0D000008020440080F0340E5F1FF0F0C0F03400D
:40570000100F0340CCF1FF0F180F03400C0201400000014003FF00800802014002FF00800002014000FF00800402014001FF00802800034000010140880000208000002076
:4057400070B50F490F4B01394A1C15D000221E685C689D68A018AA4203D0B058A0500432F8E7021CDC68151AA54202D0002520C2F9E710330139E7E700F012F9FBF7F4FD7E
:4057800001000000945A000070470000F7B50E1C051CFFF78DFD301C643068431A4B0B2140081C8800F04CF8A4B280B2211C000200F046F8041E032C00D804240227134EC0
:4057C00000F0E4F8124D3368E4B200932B6801932B68BB432B6000F0DDF880239B001C4334600120FFF74EFE346800F0CFF8009BE40B3360074B1F60019B2B6000F0CAF804
:405800000120A043FEBDC04696000020C0000840A80008409800084002B4714649084900095C49008E4402BC7047C04603B47146490840004900095A49008E4403BC7047D7
:40584000002243088B4274D303098B425FD3030A8B4244D3030B8B4228D3030C8B420DD3FF22090212BA030C8B4202D31212090265D0030B8B4219D300E0090AC30B8B42B7
:4058800001D3CB03C01A5241830B8B4201D38B03C01A5241430B8B4201D34B03C01A5241030B8B4201D30B03C01A5241C30A8B4201D3CB02C01A5241830A8B4201D38B0278
:4058C000C01A5241430A8B4201D34B02C01A5241030A8B4201D30B02C01A5241CDD2C3098B4201D3CB01C01A524183098B4201D38B01C01A524143098B4201D34B01C01AED
:40590000524103098B4201D30B01C01A5241C3088B4201D3CB00C01A524183088B4201D38B00C01A524143088B4201D34B00C01A5241411A00D20146524110467047FFE748
:4059400001B5002000F00CF802BDC0460029F7D003B5FFF775FF0EBC4243891A1847C0467047C046002310B5934203D0CC5CC4540133F9E710BD00000230800804D0C0462D
:405980000138FDD1C046C046C0467047EFF3108072B6704780F310887047C046C046C0460E4B70B500251E1C0D4CE41AA410A54204D0AB00F35898470135F8E700F058F825
:4059C000084B00251E1C084CE41AA410A54204D0AB00F35898470135F8E770BD7C5A00007C5A00007C5A0000845A0000031C8218934202D019700133FAE770470000000008
:405A00007D3F0000793F0000753F0000713F0000A946000019460000613F0000193F0000513F0000413F0000393F0000353F0000313F0000C545000005450000F94000004F
:405A40009140000021400000FD3F0000D93F0000173F0000153F0000813F0000C14100008541000061410000293F000000030507F8B5C046F8BC08BC9E467047311300004B
:405A8000C5550000F8B5C046F8BC08BC9E46704709130000A85A000090000020080000006807000000000000000000000300E40C00000000000000000000000000000000CE
:405AC00000000000000000000000000000000000000000000000000000000000000000000000000000000000000000000000000000000000000000000000000000000000A6
:405B00000000000000000000000000000000000000000000000000000000000000000000000000000000000000000000000000000000000000000000000000000000000065
:405B40000000000000000000000000000000000000000000000000000000000000000000000000000000000000000000000000000000000000000000000000000000000025
:405B800000000000000000000000000000000000000000000000000000000000000000000000000000000000000000000000000000000000000000000000000000000000E5
:407FC0009D11120000230000000049000000000000000000FFFF594302000000000000000000000000000000000000000000000000000000000000000000000000000000B9
:0200000490303A
:0200000077EE99
:0200000490402A
:200000000000000000000000000000000000000000000000000000000000000000000000E0
:0200000490501A
:0C0000000002140411A4000014208992D6
:0200000490600A
:0100000001FE
:00000001FF